:1000000012C036C035C034C033C032C031C030C079
:100010002FC02EC02DC02CC02BC02AC029C028C084
:1000200027C026C025C011241FBECFE5D4E0DEBF07
:10003000CDBF17BA84E088BB8AE084BB85E085BB6E
:1000400080E281BB12BA10E0A0E6B0E0E0EDF1E0A2
:1000500002C005900D92A638B107D9F710E0A6E8C6
:10006000B0E001C01D92A838B107E1F766D0AEC07C
:10007000C7CF982F882311F0959A01C09598B2990F
:1000800002C081E09827992311F0AB9A0895AB98AC
:10009000089580E0EEDF80E008959A9902C082E042
:1000A000089583B381700895809186008F5F809357
:1000B000860080E008959A9902C082E0089583B393
:1000C00080958170089580918600823010F490E0D0
:1000D0001DC090E001976AE070E051D0805D809390
:1000E000860020918700E22FF0E0E058FF4F9081DA
:1000F000891711F092E00AC010928600822F8F5F5C
:100100008093870090E0853009F491E0892F08956D
:10011000CF93DF93C0916000D0916100209711F4DC
:1001200082E008C081E0A5DF2197D0936100C093F1
:10013000600080E0DF91CF910895A99A80E099DF77
:1001400081E000E117E2863008F080E090E0EC0109
:10015000CC0FDD1FCC0FDD1FC80FD91FCE59DF4FCD
:10016000E881F9810995833010F080E004C0FE0138
:10017000E80FF11D8281D8011197F1F7E4CF97FBC9
:10018000092E07260AD077FD04D00CD006D0002017
:100190001AF4709561957F4F0895F6F790958195C3
:1001A0009F4F0895AA1BBB1B51E107C0AA1FBB1F8D
:1001B000A617B70710F0A61BB70B881F991F5A95F3
:1001C000A9F780959095BC01CD010895F894FFCFD3
:1001D000E02E49000000004D00010204540003031A
:1001E000035B0003010463000105008800050000B3
:0601F00033303935340004
:00000001FF
